:1000000029C036C035C034C033C032C031C030C062
:100010002FC02EC0000000000200030006000800F0
:100020000C000F00140018001E0023002A003000EE
:1000300038003F0047005000590063006D00780011
:1000400083008F009B00A800B500C300D100E00032
:10005000EF00FF0011241FBECFE9CDBF20E0A0E6D6
:10006000B0E001C01D92A136B207E1F752D190C1B4
:10007000C7CF823009F44BC028F4882361F0813067
:10008000E9F00895843009F4E9C008F499C0853096
:1000900009F432C10895F8940895813009F47894F0
:1000A000E82FF0E0EE0FFF1FEC5EFF4F908196BF50
:1000B000E0EFF0E03197F1F78F5F01C080E0803131
:1000C00060F380E110C0813009F4F894E82FF0E08B
:1000D000EE0FFF1FEC5EFF4F908196BFE0EFF0E068
:1000E0003197F1F781508111EECF0895813009F4F5
:1000F0007894E82FF0E0EE0FFF1FEC5EFF4F908149
:1001000096BFF0EAFA95F1F700008F5F01C080E03A
:10011000803260F380E210C0813009F4F894E82F57
:10012000F0E0EE0FFF1FEC5EFF4F908196BF20EADC
:100130002A95F1F7000081508111EECF08958823B0
:1001400009F07894E82FF0E0EE0FFF1FEC5EFF4F10
:10015000908196BFE7EBFBE03197F1F700C000001C
:100160008F5F01C080E0803150F380E10FC0E82F45
:10017000F0E0EE0FFF1FEC5EFF4F908196BFEBEDBE
:10018000F5E03197F1F700C000008F5F803278F31F
:1001900080E212C0813009F4F894E82FF0E0EE0F0D
:1001A000FF1FEC5EFF4F908196BFEBEDF5E03197BE
:1001B000F1F700C0000081508111ECCF2F5F01C02A
:1001C00020E0223078F2FFE729EA83E0F150204076
:1001D0008040E1F700C000000895882309F078947A
:1001E000E82FF0E0EE0FFF1FEC5EFF4F908196BF0F
:1001F000E7EBFBE03197F1F700C000008F5F01C033
:1002000080E0803150F380E10FC0E82FF0E0EE0F86
:10021000FF1FEC5EFF4F908196BFEBEDF5E031974D
:10022000F1F700C000008F5F803278F380E212C0E7
:10023000813009F4F894E82FF0E0EE0FFF1FEC5E38
:10024000FF4F908196BFEBEDF5E03197F1F700C0DD
:10025000000081508111ECCF2F5F01C020E02230DF
:1002600078F2FFEF20E782E0F15020408040E1F794
:1002700000C000000895882309F07894E82FF0E08A
:10028000EE0FFF1FEC5EFF4F908196BFE7EBFBE0A8
:100290003197F1F700C000008F5F01C080E080312E
:1002A00050F380E10FC0E82FF0E0EE0FFF1FEC5E8F
:1002B000FF4F908196BFEBEDF5E03197F1F700C06D
:1002C00000008F5F803278F380E212C0813009F441
:1002D000F894E82FF0E0EE0FFF1FEC5EFF4F9081E7
:1002E00096BFEBEDF5E03197F1F700C000008150CB
:1002F0008111ECCF2F5F01C020E0223078F2FFE7C0
:1003000028E381E0F15020408040E1F700C0000088
:100310000895F89487B3816087BB84E088BB83E845
:100320008FBD82E083BF12BE16BE7894B29B03C01D
:100330002BC08F5F01C080E0B29BFBCF853120F1E5
:1003400080916000811104C081E0809360001CC036
:10035000813021F482E08093600016C0823021F465
:1003600083E08093600010C0833021F484E08093A8
:1003700060000AC0843021F485E08093600004C0EE
:10038000853011F4109260008091600072DECECF53
:04039000F894FFCF0F
:040000050080006017
:00000001FF
