S01E000050574D5F415454494E593133415F657874656E6465642E7372656385
S113000089C096C095C094C093C092C091C090C05E
S11300108FC08EC00000000000000000000000003F
S113002000000000000000000000000000010101C9
S1130030010101010102020202020202030303039D
S11300400304040404050505050606060607070758
S11300500808080909090A0A0A0B0B0C0C0C0D0DF7
S11300600E0E0F0F10101111121213131414151574
S11300701617171818191A1A1B1C1C1D1E1E1F20D0
S11300802021222323242526262728292A2B2B2C0A
S11300902D2E2F30313233343435363738393A3B1C
S11300A03C3D3F4041424344454647484A4B4C4D02
S11300B04E50515253555657585A5B5C5E5F6062BE
S11300C063646667696A6C6D6E707173747678794F
S11300D07B7C7E7F8183848687898B8D8E909293AF
S11300E09597999A9C9EA0A2A4A5A7A9ABADAFB1E0
S11300F0B3B5B7B9BBBDBFC1C3C5C7C9CBCDCFD1DC
S1130100D3D6D8DADCDEE1E3E5E7EAECEEF0F3F5AA
S1130110F7FAFCFF11241FBECFE9CDBF20E0A0E613
S1130120B0E001C01D92A136B207E1F703D13FC18F
S113013067CF823079F028F48823A1F0813071F000
S11301400895843009F480C008F444C0853009F46B
S1130150B5C00895E4E1F0E080E024C0E4E1F0E01B
S113016080E005C0F8940895813009F47894919161
S113017096BFA0EFB0E01197F1F78F5F8F37A1F72B
S1130180E4E9F0E0929196BFA0EFB0E01197F1F7A7
S1130190815021F08130B1F7F894F4CF0895813083
S11301A009F47894919196BFB0EABA95F1F70000FA
S11301B08F5F8F3FA1F7E4E1F1E0929196BF20EACF
S11301C02A95F1F70000815021F08130B1F7F894BD
S11301D0F4CF089592E0E4E1F0E080E0219126BFBD
S11301E0A7EBBBE01197F1F700C000008F5F8F37DA
S11301F011F07894F3CFE3E9F0E0819186BFABEDA1
S1130200B5E01197F1F700C00000B1E0E331FB075E
S1130210A1F7E4E1F1E08FEF229126BFABEDB5E069
S11302201197F1F700C00000815021F08130A1F74F
S1130230F894F2CF915079F6BFE729EA83E0B15000
S113024020408040E1F773C092E0E4E1F0E080E018
S1130250219126BFA7EBBBE01197F1F700C0000086
S11302608F5F8F3711F07894F3CFE3E9F0E0819159
S113027086BFABEDB5E01197F1F700C00000B1E027
S1130280E331FB07A1F7E4E1F1E08FEF229126BF10
S1130290ABEDB5E01197F1F700C00000815021F0FB
S11302A08130A1F7F894F2CF915079F6BFEF20E7AF
S11302B082E0B15020408040E1F739C092E0E4E1AF
S11302C0F0E080E0219126BFA7EBBBE01197F1F7A6
S11302D000C000008F5F8F3711F07894F3CFE3E90B
S11302E0F0E0819186BFABEDB5E01197F1F700C066
S11302F00000B1E0E331FB07A1F7E4E1F1E08FEFA7
S1130300229126BFABEDB5E01197F1F700C00000D4
S1130310815021F08130A1F7F894F2CF915079F611
S1130320BFE728E381E0B15020408040E1F700C0FE
S113033000000895F894B89A84E088BB83E88FBDE0
S113034082E083BF12BE16BE7894C5E0D4E013E009
S113035002E0FF24F394B29926C080E0B29902C06F
S11303608F5FFCCF8531F8F080916000811103C06C
S1130370F092600018C0813019F40093600013C03B
S1130380823019F4109360000EC0833019F4D093B6
S1130390600009C0843019F4C093600004C0853043
S11303A011F41092600080916000C3DED4CFF89401
S10503B0FFCF79
S90300609C
