:1000000089C096C095C094C093C092C091C090C062
:100010008FC08EC000000000000000000000000043
:1000200000000000000000000000000000010101CD
:1000300001010101010202020202020203030303A1
:10004000030404040405050505060606060707075C
:100050000808080909090A0A0A0B0B0C0C0C0D0DFB
:100060000E0E0F0F10101111121213131414151578
:100070001617171818191A1A1B1C1C1D1E1E1F20D4
:100080002021222323242526262728292A2B2B2C0E
:100090002D2E2F30313233343435363738393A3B20
:1000A0003C3D3F4041424344454647484A4B4C4D06
:1000B0004E50515253555657585A5B5C5E5F6062C2
:1000C00063646667696A6C6D6E7071737476787953
:1000D0007B7C7E7F8183848687898B8D8E909293B3
:1000E0009597999A9C9EA0A2A4A5A7A9ABADAFB1E4
:1000F000B3B5B7B9BBBDBFC1C3C5C7C9CBCDCFD1E0
:10010000D3D6D8DADCDEE1E3E5E7EAECEEF0F3F5AE
:10011000F7FAFCFF11241FBECFE9CDBF20E0A0E617
:10012000B0E001C01D92A036B207E1F721D035C082
:1001300067CF80E0E82FF0E0EC5EFF4F908196BF44
:100140008F5FE0EEF1E03197F1F78F3F99F7E82FFD
:10015000F0E0EC5EFF4F908196BF8150E0EEF1E061
:100160003197F1F78111F3CF0895E3DFE2DF0895CE
:10017000F89487B3816087BB84E088BB83E88FBD38
:1001800082E083BF12BE16BE7894B299FECF62E3BE
:0E01900070E080E090E0E9DFF8CFF894FFCF58
:00000001FF
